:100000000C9434020C9451020C9451020C94510241
:100010000C9451020C9451020C9451020C94510214
:100020000C9451020C9451020C9451020C949102C4
:100030000C9451020C9451020C9451020C945102F4
:100040000C9451020C9451020C9451020C945102E4
:100050000C945102167A0A0C20600001030705096E
:100060000701030305050103010305030505050554
:10007000050505050101050605050B070607070629
:10008000050707010507060707070607070607070D
:10009000070B07070702030205070205050405050C
:1000A000030505010205010905050505030503050D
:1000B000050905050503010306077F100700070072
:1000C000000024E43CE73C2724001000100000005E
:1000D000CE11FF11E200103010000E1111CE38E6E3
:1000E0001110E0000010000000101000E01E1129A7
:1000F000C6A000001010100000100700F806010054
:1001000030400106F8403000020A070A02000000F1
:10011000000010107C101000000000000070202073
:10012000200000000010807C03100000FE0101018F
:10013000FE00101010000402FF0000100281413187
:100140000E101010101082011111EE00101010008E
:10015000605846FF4000000010009C0B0909F100A8
:1001600010101000FE110909F2001010100001C15A
:100170003905030010000000EE111111EE001010FF
:1001800010009E212111FE001010100004100470B8
:1001900010282828440000000000484848484848E3
:1001A0000000000000004428282810000000000083
:1001B000060161110E0000100000F00CE2120909A6
:1001C000F119028678102040909090909050402035
:1001D00080702E212E708010000000000010FF1192
:1001E000111111EE1010101010007C82010101821B
:1001F0004400001010100000FF01010101827C107A
:10020000101010100000FF1111111111101010101A
:100210001010FF1111110110000000007C8201017B
:1002200011927400001010100000FF101010101038
:10023000FF10000000000010FF10C0000000FF00D1
:1002400010101000FF201028448201100000000050
:100250000010FF0000000000101010101010FF062A
:1002600078807806FF10000010000010FF020C10CC
:100270006080FF100000000000107C8201010182FC
:100280007C00001010100000FF111111110E100061
:10029000000000007C82014141827C0000101010AF
:1002A0000010FF11111131D10E10000000000010DC
:1002B000CE11111111E6001010101000010101FF04
:1002C000010101000000100000007F80000000809C
:1002D0007F00001010100000031C6080601C0300F1
:1002E000000010000000077880700E010E70807C06
:1002F00003000010000000000010000001C62810DC
:100300006C820110000000000010010608F00806D1
:100310000100000010000000008161110D030110B8
:10032000101010101010FF017040037C80000010AE
:1003300001FF4070100E010E1000000000000000D0
:1003400000000000004040404040404001020000EA
:10035000C82424A4F80010100010FF880404F8102A
:1003600000101000F804048800101000F80404883D
:10037000FF0010100010F8242424B8001010100002
:1003800004FE05001000F8040488FC405050403082
:10039000FF080404F81000000010FD1000FD4030BC
:1003A000FF2030C8041000000010FF10FC080404F7
:1003B000F8080404F8100000001000000010FC0809
:1003C0000404F81000000010F8040404F8001010F1
:1003D0001000FC880404F87000101000F804048871
:1003E000FC0010100070FC08041000009824242465
:1003F000C8001010100004FF04001010FC00008062
:10040000FC00101000100C7080700C000010000038
:100410000C7080700C7080700C00001000000010D8
:10042000000004D860980410000000100C70807068
:100430000C004030000004C4241C041010101010E4
:1004400020DE01003040FF7001DE2040300020102F
:1004500010202010000000000000FE020202020234
:10046000FE1010101010101011241FBECFE5D8E0A0
:10047000DEBFCDBF10E0A0E6B0E0E8E7FAE002C0E2
:1004800005900D92A837B107D9F721E0A8E7B0E0B1
:1004900001C01D92AB33B207E1F70E9404050C9432
:1004A0003A050C940000E0917900F0917A00E80F91
:1004B000F91F8491089590937A00809379000895AC
:1004C00081B3886381BB81B3806C81BBB89A82B3EE
:1004D0008F7382BB82B3806C82BB089592B39F738B
:1004E00092BB823059F0833029F0813009F00895B1
:1004F000969A089582B3806C82BB0895979A089566
:1005000098E006C09398949A9498880F915041F07F
:1005100087FFF8CF939A949A9498880F9150C1F7D7
:1005200008951F920F920FB60F9211240F931F93ED
:100530002F933F934F935F936F937F938F939F93EB
:10054000AF93BF93CF93DF93EF93FF930091780026
:1005500010E0E801C558DF4F055C1E4F88810E94FE
:1005600080022496C017D107C9F7C098959A81E0F8
:10057000982F9A95F1F795988A95F1F790917800D0
:1005800083E0891B0E946E02C09A809178008F5F81
:100590008430B9F080937800FF91EF91DF91CF9193
:1005A000BF91AF919F918F917F916F915F914F918B
:1005B0003F912F911F910F910F900FBE0F901F90A1
:1005C000189510927800E8CF2F923F924F925F9249
:1005D0006F927F928F929F92AF92BF92CF92DF9253
:1005E000EF92FF920F931F93CF93DF93CDB7DEB7B8
:1005F0002E970FB6F894DEBF0FBECDBF89836D83F3
:10060000842E83E090E00E945302982EE82EF12C75
:1006100027E0E20EF11CF594E794F594E794F59445
:10062000E79484E090E00E9453028A8385E090E0A2
:100630000E9453023A81831608F48FC1282D30E0BE
:10064000C82ED12CA6018A81480F511DC9018417DB
:1006500095070CF082C19A81891A09F480C10FEFC5
:10066000080D10E0095F1F4F46E0A42EB12C1B823D
:100670001A82C5010E9453022A813B81280F311D35
:100680003B832A833FEFA31AB30A0A151B0589F798
:100690004A815B81E49EC001E59E900DF49E900D21
:1006A000112456E0C50ED11C9601280F391F38873A
:1006B0002F83882D90E006960E9453028B878E2D03
:1006C000880F880F880F89198C87EA944E2D50E087
:1006D0005A87498780E090E0452B09F494C01E8238
:1006E0003B85232F30E03B832A832FE54981241B60
:1006F0002C8327E0222EAA24A394B12C2A813B81AB
:100700003E872D874D855E85849F9001859F300DA6
:10071000949F300D11248F819885820F931F9B83A6
:100720008A834D80E12CF12C55245394312C842C58
:10073000042C000C9908742C632C352CC4018E0DEC
:100740009F1D40970CF050C08D859E85892B09F424
:1007500042C0998190360CF03EC00A811B81592E0F
:10076000412CC72CD12C03C020E65216A1F1C801A0
:100770000E945302832111F13FE53515F8F04FE057
:100780004715E0F08C818419982F9595959595954E
:10079000F60150E19502E00DF11D11248770922DB4
:1007A000981B950102C0220F331F9A95E2F7C901E9
:1007B0008095E558FF4F9081892380830F5F1F4FFD
:1007C00043945394842D042C000C990B4D855E8525
:1007D000841795074CF2330C63945FEFE51AF50A22
:1007E000739488E06812AACF9D81985F9D832E81C3
:1007F0002F5F2E83822F220F990B49855A858417EC
:1008000095070CF47FCF21E0522E0C8401C0550CCB
:100810000A94EAF728E030E079014C85E41AF108FF
:100820001E141F040CF07FC05D81C52E550FDD081E
:1008300020E1C216D1040CF076C05B85452F50E054
:100840005A874987489F9001499F300D589F300D26
:1008500011248F819885820F931F98878F834D80F5
:10086000312C8FE59981891B8A8387E0282EAA2461
:10087000A394B12C732C642C352C29853A85232B19
:1008800009F442C0398130360CF03EC00F81188522
:10089000532E412C862C912C03C040E65416A1F116
:1008A000C8010E945302832111F15FE55515F8F04C
:1008B0008FE08615E0F08A818419982F959595959B
:1008C0009595F40120E19202E00DF11D112487704D
:1008D000322D381BA50102C0440F551F3A95E2F78F
:1008E000942F9095E558FF4F8081892380830F5F77
:1008F0001F4F43945394842D042C000C990B29858D
:100900003A85821793074CF2330C7394872D072C8A
:10091000000C990B8E159F0534F463948C0D9D1D6E
:1009200040970CF4AACF81E02E960FB6F894DEBF64
:100930000FBECDBFDF91CF911F910F91FF90EF9030
:10094000DF90CF90BF90AF909F908F907F906F90EF
:100950005F904F903F902F9008958FEFE5CF80E00C
:1009600090E09FCECF93DF93C82F84E090E00E9469
:100970005302D82F85E090E00E945302CD1780F0FB
:100980002C2F30E090E08D0F911D2817390744F48B
:10099000CD1B8C2F90E00696DF91CF910C945302E3
:1009A0008FEFDF91CF910895FF920F931F93CF9315
:1009B000DF93C82FD62FFA01F22E40814423E9F0AD
:1009C0008F010DC0F80181918F010E94B2048F3F09
:1009D00069F0CD5FC80FF8014081442371F02F2DDD
:1009E0006D2F8C2F0E94E4028F3F61F78FEFDF9114
:1009F000CF911F910F91FF90089581E0DF91CF91EA
:100A00001F910F91FF9008950E94600284E590E08D
:100A10000E945B02EBE7F0E08FEF819321E0EB3384
:100A2000F207D9F783B7836083BF89B7816089BF35
:100A300012BE7894CFEFEBE7F0E0C19381E0EB33A7
:100A4000F807D9F720E040E650E060E080E00E943F
:100A5000D40420E04FE650E060E180E00E94D4043E
:100A60009FEF2DE389E4915020408040E1F700C0E2
:080A70000000E1CFF894FFCF74
:100A78004C2063616E7465656E20616B6B61006903
:080A88007368616E6B610000F0
:00000001FF
